:020000040800F2
:10000000D0060020510C0008990400089B04000849
:100010009F040008A3040008A704000800000000D3
:10002000000000000000000000000000AB04000819
:10003000AD04000800000000AF040008B10400088F
:100040006B0C00086B0C00086B0C00086B0C0008B4
:100050006B0C00086B0C00086B0C00086B0C0008A4
:100060006B0C00086B0C00086B0C00086B0C000894
:100070006B0C00086B0C00086B0C00086B0C000884
:100080006B0C00086B0C00086B0C00086B0C000874
:100090006B0C00086B0C00086B0C00086B0C000864
:1000A0006B0C00086B0C00086B0C00086B0C000854
:1000B0006B0C00086B0C00086B0C00086B0C000844
:1000C0006B0C00086B0C00086B0C00086B0C000834
:1000D0006B0C0008350B00086B0C00086B0C00085B
:1000E0006B0C00086B0C00086B0C00086B0C000814
:1000F0006B0C00086B0C00086B0C00086B0C000804
:100100006B0C00086B0C00086B0C00086B0C0008F3
:100110006B0C00086B0C00086B0C00086B0C0008E3
:100120006B0C00086B0C00086B0C00086B0C0008D3
:1001300000F002F800F03AF80AA090E8000C8244BF
:100140008344AAF10107DA4501D100F02FF8AFF29C
:10015000090EBAE80F0013F0010F18BFFB1A43F0A5
:10016000010318477C1800009C180000103A24BFB7
:1001700078C878C1FAD8520724BF30C830C144BF0C
:1001800004680C607047000000230024002500264E
:10019000103A28BF78C1FBD8520728BF30C148BFEA
:1001A0000B6070471FB51FBD10B510BD01F067FB98
:1001B0001146FFF7F7FF00F009F801F085FB03B4E3
:1001C000FFF7F2FF03BC00F0BDFB000086B000F0BB
:1001D0004FFB4FF4A06001F0DFFA4FF4E13000F084
:1001E000BFFBA6A1A94800F002FD00F053FA00F001
:1001F0006DFA41E1A648007811282BD2DFE800F023
:100200002A092B4D7093B5D7F3F12A2A2A2A2A2AD4
:10021000F000A048006801F065FB04469D480068B6
:1002200001F060FB05469B48006801F05BFB064659
:100230009848006801F056FB07460120CDE901050A
:1002400000233A4619460096CDE903044FF4FA70AC
:1002500000F06FFA0FE18F48006801F043FB04469D
:100260008C48006801F03EFB05468A48006801F0B2
:1002700039FB06468748006801F034FB074600203A
:10028000CDE9010501233A4619460096CDE903045C
:100290004FF4FA7000F04DFAEDE07E48006801F08E
:1002A00021FB04467B48006801F01CFB05467948A9
:1002B000006801F017FB06467648006801F012FB63
:1002C0000746002001210B463A46CDE90061CDE901
:1002D0000250049401464FF4FA7000F02AFACAE082
:1002E0006C48006801F0FEFA04466A48006801F0B4
:1002F000F9FA05466748006801F0F4FA06466548D1
:10030000006801F0EFFA0746012000210B463A464B
:10031000CDE90061CDE90250049401464FF4FA7032
:1003200000F007FAA7E05B48006801F0DBFA04463A
:100330005848006801F0D6FA05465648006801F0B2
:10034000D1FA06465348006801F0CCFA074601206E
:10035000CDE9010503463A4601460096CDE903047E
:100360004FF4FA7000F0E5F985E04A48006801F0C2
:10037000B9FA04464748006801F0B4FA0546454812
:10038000006801F0AFFA06464248006801F0AAFA98
:1003900007460020CDE9010503463A46014600968E
:1003A000CDE903044FF4FA7000F0C3F963E0394873
:1003B000006801F097FA04463648006801F092FAA6
:1003C000054600200122CDE9024004900346CDE914
:1003D00000022A4601464FF4FA7000F0AAF94AE0FA
:1003E00031E018E0FFE72B48006801F07BFA044693
:1003F0002848006801F076FA0546012000210191A5
:100400000B460A460095CDE9030402914FF4FA70B9
:1004100000F08FF92FE01F48006801F063FA0446EE
:100420001C48006801F05EFA054600200190029029
:100430000123024601460095CDE903044FF4FA700A
:1004400000F077F917E01348006801F04BFA044612
:100450001048006801F046FA05460020CDE9010485
:100460000390049003462A46012100904FF4FA704D
:1004700000F05FF900BF00BFBCE6000055534152D9
:1004800054312053656E64204F4B210000380140E9
:10049000180000201C000020704700BFFEE700BFCE
:1004A000FEE700BFFEE700BFFEE7704770477047FA
:1004B000704700000CB50020019000906C48006867
:1004C00040F480306A49086000BF6948006800F461
:1004D000003000900198401C0190009818B90198D4
:1004E000B0F5A06FF1D16248006800F4003010B19F
:1004F0000120009001E0002000900098012843D1E5
:100500005C48006840F010005A49086008460068DE
:1005100020F0030008600846006840F00200086010
:100520005348406852494860084640684860084659
:10053000406840F4806048600846406820F47C10C1
:1005400048600846406840F4E81048600846006883
:1005500040F08070086000BF4548006800F00070FF
:100560000028F9D04248406820F003004049486024
:100570000846406840F00200486000BF3C484068C0
:1005800000F00C000828F9D10CBD10B5FFF792FF60
:1005900010BD10B53648006840F0010034490860CD
:1005A00008464068344908403149486008460068B8
:1005B000324908402E4908600846006820F480202F
:1005C00008600846406820F4FE0048604FF41F00B1
:1005D0008860FFF7DAFF4FF000602949086010BD1E
:1005E00010B5002100200022214B5B6803F00C01B4
:1005F00021B1042906D0082928D107E0214B224C3B
:10060000236027E01F4B204C236023E0184B5B68DE
:1006100003F47010164B5B6803F48032022303EB83
:10062000904022B9194B4343174C23600DE0104B07
:100630005B6803F4003323B1144B4343124C236033
:1006400003E0104B4343104C236003E00D4B0E4C72
:10065000236000BF00BF064B5B68C3F303130C4C61
:10066000E15C094B1B68CB40074C236010BD0000C8
:1006700000100240002002400000FFF8FFFFF6FEDD
:1006800008ED00E000127A000000002000093D00A3
:100690000400002008B50121102000F015FE4FF4E1
:1006A0000050ADF8000010208DF8030003208DF8F5
:1006B00002006946044800F04BFB4FF48071024889
:1006C00000F0F3FB08BD00000010014008B5012157
:1006D000042000F0F9FDFF20ADF8000010208DF897
:1006E000030003208DF802006946604800F030FBEB
:1006F00002215E4800F0DBFB01215C4800F0D7FBE3
:1007000008215A4800F0D3FB0421584800F0CFFBE1
:100710002021564800F0CBFB1021544800F0C7FBC5
:100720008021524800F0C3FB4021504800F0BFFB3D
:1007300008BD2DE9FF5F0E4615461F46DDE90FB9DE
:10074000DDF848A0DDF8388016B1012E0AD104E0AA
:100750000121464800F0A9FB05E00121434800F0D3
:10076000A6FB00E000BF00BF17B1012F0AD104E0D3
:1007700004213E4800F099FB05E004213B4800F0CD
:1007800096FB00E000BF00BFBBF1000F03D0BBF140
:10079000010F0AD104E01021344800F086FB05E087
:1007A0001021324800F083FB00E000BF00BF119829
:1007B00010B101280AD104E040212C4800F075FB5B
:1007C00005E04021294800F072FB00E000BF00BFB7
:1007D000002440E0AC420DD20221244800F065FB29
:1007E000009800F05EF80221204800F060FB0098BD
:1007F00000F057F844450DD208211C4800F055FB85
:10080000009800F04EF80821184800F050FB0098BE
:1008100000F047F84C450DD22021144800F045FB6C
:10082000009800F03EF82021104800F040FB0098AE
:1008300000F037F854450DD280210C4800F035FB0C
:10084000009800F02EF88021084800F030FB009856
:1008500000F027F8641CAC42BCD34445BAD34C45E5
:10086000B8D35445B6D3BDE8FF9F0000000801404F
:1008700010B56FF0040000F0DEFF2E4800682E492E
:10088000B0FBF1F02D4908700846007800EB4001FC
:10089000C1EBC0104FF6FF7101EAC0002849088083
:1008A00010BD0146254A12784A434FF0E0235A61B1
:1008B00000229A611A46126942F001021A6100BFD1
:1008C0004FF0E022106900F001021AB100F480320A
:1008D000002AF5D04FF0E022126922F001024FF019
:1008E000E0231A6100229A6170470146144A128877
:1008F0004A434FF0E0235A6100229A611A46126976
:1009000042F001021A6100BF4FF0E022106900F0CE
:1009100001021AB100F48032002AF5D04FF0E02233
:10092000126922F001024FF0E0231A6100229A615D
:10093000704700000000002000127A001400002020
:100940001600002000BF704700BFB44A128802F0B2
:100950004002002AF9D0C2B2B04B1B1D1A8070476A
:1009600010B586B004460121880300F0ADFC0121DA
:10097000042000F0A9FC18208DF817004FF4007037
:10098000ADF8140003208DF8160005A9A44800F066
:10099000DFF948208DF817004FF48060ADF814009F
:1009A00003208DF8160005A99D4800F0D1F90194A7
:1009B0000020ADF810000C20ADF80E000020ADF8BE
:1009C0000C00ADF80A00ADF8080001A9934800F04A
:1009D00022FD012240F22551904800F0B4FD012192
:1009E0008E4800F0A4FD25208DF8000000208DF831
:1009F00001008DF8020001208DF80300684600F028
:100A0000D0FE06B010BD10B504462146854800F062
:100A1000FBFD00BF8021834800F064FE0028F9D070
:100A200010BD10B5044621467C4800F0EDFD00BF26
:100A300080217A4800F056FE0028F9D010BD10B58C
:100A400004462146784800F0DFFD00BF802176484B
:100A500000F048FE0028F9D010BD70B505460E46DE
:100A6000002404E0285DFFF7CEFF601C84B2B4428E
:100A7000F8DB70BD70B50446002504E0605DFFF74B
:100A8000C2FF681CC5B2605D0028F7D170BD10B50B
:100A90000246012000E050430B1EA1F10101FAD1F2
:100AA00010BD2DE9F04106460C46002512E0601B02
:100AB000411E0A20FFF7EBFFB6FBF0F00A21B0FB66
:100AC000F1F201FB120000F130073846FFF79BFFFF
:100AD000681CC5B2A542EADBBDE8F0815348007846
:100AE000012804D1002051490870012070470020DE
:100AF000FCE74F480078704710B54E4840784E49A3
:100B000008704C4880784D49087008460078642188
:100B100048434B4908804748C0784A4908704849CB
:100B2000B1F90010474A1278881800F0FBFE4649D8
:100B3000086010BD10B540F22551384800F0E8FDBE
:100B4000012844D1354800F063FD3949087001207F
:100B50003649087040F22551304800F003FE344811
:100B60000078AA280DD10020384908703048017853
:100B7000364802780078401C344B18702D48815458
:100B800025E03248007810B3294801782F480278D0
:100B90000078401C2D4B187026488154244800785A
:100BA00055280DD118460078052805D1FFF7A4FF78
:100BB0000020264908700AE000202449087006E059
:100BC00022480078052802DB00202049087010BD6B
:100BD00070B504460D462946204600F015FD00BFBD
:100BE0008021204600F07EFD0028F9D070BD70B550
:100BF00006460C46002500BF615D3046FFF7E8FF62
:100C0000681C85B2605D0028F6D100BF40213046E7
:100C100000F068FD0028F9D070BD000000380140E8
:100C200000080140004800400044004051000020FE
:100C30005000002025000020180000202000002087
:100C400022000020240000201C0000202A00002098
:100C50000948804709480047FEE7FEE7FEE7FEE750
:100C6000FEE7FEE7FEE7FEE7FEE7FEE7044805498C
:100C7000054A064B70470000930500083101000843
:100C8000D0000020D0060020D0020020D00200209A
:100C900010B50446CC48844208D10121042000F05C
:100CA0002DFB0021042000F029FB46E0C7488442C8
:100CB00008D10121082000F021FB0021082000F0CC
:100CC0001DFB3AE0C248844208D10121102000F007
:100CD00015FB0021102000F011FB2EE0BD488442DE
:100CE00008D10121202000F009FB0021202000F084
:100CF00005FB22E0B848844208D10121402000F0E1
:100D0000FDFA0021402000F0F9FA16E0B3488442D1
:100D100008D10121802000F0F1FA0021802000F0AC
:100D2000EDFA0AE0AE48844207D10121801500F0B7
:100D3000E5FA0021A01500F0E1FA10BD10B501217F
:100D4000084600F0DBFA0021012000F0D7FA10BDC0
:100D50002DE9F04102460025002600200023002452
:100D6000002791F803C00CF00F0591F803C00CF0B8
:100D7000100CBCF1000F03D091F802C04CEA05053D
:100D800091F800C0BCF1000F31D0146800202BE0B6
:100D90004FF0010C0CFA00F3B1F800C00CEA0306A6
:100DA0009E4220D183004FF00F0C0CFA03F7BC4396
:100DB00005FA03FC4CEA040491F803C0BCF1280FC7
:100DC00006D14FF0010C0CFA00FCC2F814C00AE086
:100DD00091F803C0BCF1480F05D14FF0010C0CFA9B
:100DE00000FCC2F810C0401C0828D1D31460B1F830
:100DF00000C0BCF1FF0F34DD546800202EE000F18C
:100E0000080C4FF0010808FA0CF3B1F800C00CEA26
:100E100003069E4221D183004FF00F0C0CFA03F71A
:100E2000BC4305FA03FC4CEA040491F803C0BCF18E
:100E3000280F05D100F1080C08FA0CF8C2F814804C
:100E400091F803C0BCF1480F07D100F1080C4FF036
:100E5000010808FA0CF8C2F81080401C0828CED30C
:100E60005460BDE8F0814FF6FF710180022181706E
:100E70000421C17070470246002093680B400BB1FB
:100E8000012000E0002070470146886880B270476A
:100E900002460020D3680B400BB1012000E0002087
:100EA00070470146C86880B2704701617047416170
:100EB00070470AB1016100E041617047C16070474D
:100EC0004FF480320A438261816182618269826962
:100ED000704702460020434B18684FF68073184055
:100EE00040EA021008433F4B186070473E49C86112
:100EF0007047F0B50A46002300240021002500F0C9
:100F00000046B6F1004F02D1364EF16901E0354E90
:100F10007168C0F3034583B200F44016B6F5401F74
:100F200008D121F070612F4E766826F070662D4F43
:100F30007E6012E000F48016B6F5801F06D103260D
:100F400006FA05F4A14341F0706106E0460D360152
:100F500003FA06F6B14341F0706122B1460D360145
:100F600003FA06F6314300F00046B6F1004F02D115
:100F70001C4EF16101E01B4E7160F0BD30B50022E6
:100F80008B071C0F0F2303FA04F2164B08338C1047
:100F900053F824309343134C08348D1044F8253013
:100FA00023468C1053F824308C07240F00FA04F4E5
:100FB00023430C4C08348D1044F8253030BD0A49C9
:100FC000DC3108607047000000080140000C01405F
:100FD000001001400014014000180140001C0140B5
:100FE000002001400000014000002042DF4800686E
:100FF00040F00100DD49086008464068DC490840CF
:10100000DA49486008460068DA490840D74908606C
:101010000846006820F4802008600846406820F4F4
:10102000FE0048604FF41F0088607047CF49096890
:1010300021F48031CD4A11601146096821F48021E4
:101040001160B0F5803F03D0B0F5802F0ED106E0DF
:10105000C649096841F48031C44A116007E0C349B8
:10106000096841F4A021C14A116000E000BF00BF3F
:10107000704710B501460022002300204A11012AC2
:1010800002D1BA4C236806E0022A02D1B74C236A87
:1010900001E0B64C636A01F01F02012494401C4039
:1010A0000CB1012000E0002010BD38B500200090F8
:1010B0000024002500BF3120FFF7DBFF0546009824
:1010C000401C00900098B0F5A06F01D0002DF2D028
:1010D0003120FFF7CEFF08B1012400E000242046B4
:1010E00038BD01460020A14A106820F0F80040EA0F
:1010F000C10010607047A049086070470246002098
:101100009A4B586820F47C1042EA01031843974B2D
:101110005860704798490866704701460020934A16
:10112000506820F003000843506070478F484068C3
:1011300000F00C007047014600208C4A506820F0F7
:10114000F00008435060704701460020874A50680D
:1011500020F4E06008435060704701460020834A55
:10116000506820F4605040EAC1005060704729B1D7
:101170007E4A527A02437D4B5A7204E07B4A527A8D
:1011800082437A4B5A7270477B49D8310860704766
:1011900001460020754A506820F4404008435060E2
:1011A00070470021714A20321170704A82F8201075
:1011B000012802D004280AD104E001216B4A203220
:1011C000117005E00521694A2032117000E000BF6E
:1011D00000BF70476949086070476449096A014364
:1011E000624A11627047654944390860704730B5FA
:1011F00000210022002400235C4D6D6805F00C01E5
:1012000021B1042905D0082923D105E05C4D0560F2
:1012100022E05B4D05601FE0544D6D6805F47012CF
:10122000524D6D6805F48034022505EB92421CB9DD
:10123000544D554305600BE04C4D6D6805F4003589
:101240001DB1504D5543056002E04D4D55430560BD
:1012500002E04B4D056000BF00BF444D6D6805F0D6
:10126000F0010909484D6B5C0568DD4045603F4D64
:101270006D6805F4E061090A434D6B5C4568DD402B
:1012800085603A4D6D6805F46051C90A3E4D6B5C4E
:101290004568DD40C560354D6D6805F44041890BFA
:1012A0003A4D6B5CC568B5FBF3F5056130BD29B1FE
:1012B0002E4A526902432D4B5A6104E02B4A52696F
:1012C00082432A4B5A61704729B1284A92690243E6
:1012D000264B9A6104E0254A92698243234B9A6126
:1012E000704729B1214AD2690243204BDA6104E0F8
:1012F0001E4AD26982431D4BDA61704729B11B4AED
:10130000D2680243194BDA6004E0184AD26882437B
:10131000164BDA60704729B1144A12690243134B25
:101320001A6104E0114A12698243104B1A61704736
:1013300012494039086070470F49C86470470B492B
:10134000C87170470948406A40F080700749486298
:10135000704701460020054A92680A400AB1012000
:1013600000E0002070470149887270470010024079
:101370000000FFF8FFFFF6FE0000424280044242F8
:1013800000127A0000093D0058000020680000208B
:1013900010B50446FB48844209D101218803FFF7B8
:1013A000ADFF00214FF48040FFF7A8FF32E0F64880
:1013B000844209D101214804FFF7ADFF00214FF419
:1013C0000030FFF7A8FF25E0F048844209D1012151
:1013D0008804FFF7A0FF00214FF48020FFF79BFF58
:1013E00018E0EB48844209D10121C804FFF793FFBC
:1013F00000214FF40020FFF78EFF0BE0E548844208
:1014000008D101210805FFF786FF00214FF4801065
:10141000FFF781FF10BD2DE9F04786B005460E4667
:101420000024A24600BFA1460027B08900B100BF3A
:101430002F462C8A4CF6FF700440F08804432C821F
:10144000AC894EF6F3100440B088318908437189A5
:1014500008430443AC81AC8A4FF6FF400440B08996
:101460000443AC8201A8FFF7C2FEC648874202D1FE
:10147000DDF810A001E0DDF80CA0A88900F4004020
:1014800040B10AEBCA0000EB0A1031684900B0FB1A
:10149000F1F807E00AEBCA0000EB0A103168890096
:1014A000B0FBF1F86420B8FBF0F0040120096421DE
:1014B00001FB1089A88900F4004040B1322000EB04
:1014C000C900B0FBF1F000F00700044308E032204F
:1014D00000EB09106421B0FBF1F000F00F000443B1
:1014E0002C8106B0BDE8F0874FF416510160002151
:1014F0008180C18001810C2141810021818170475F
:1015000010B502460020108A4FF2FF0318400B88E6
:101510004C8823438C882343CC8823431843108270
:1015200010BD0021018041808180C180704721B1C0
:10153000828942F40052828104E082894DF6FF7371
:101540001A4082817047F0B503460024002600252A
:10155000002040F66A17B94200D100BF1846C1F317
:10156000421401F01F06012707FA06F5012C01D1EC
:101570000C3004E0022C01D1103000E014301AB11C
:1015800007682F43076002E00768AF430760F0BDBC
:101590001AB1838A0B43838202E0838A8B4383825E
:1015A0007047028A4FF6F0731A400282028A0A4399
:1015B0000282704782894FF2FF731A4082818289CA
:1015C0000A438281704721B1828942F002028281FE
:1015D00004E082894FF6FD731A4082817047028AC7
:1015E0004FF6DF731A400282028A0A430282704772
:1015F00021B1028A42F48042028204E0028A4BF660
:10160000FF731A4002827047C1F30802828070475C
:1016100001468888C0F308007047818941F00101C4
:1016200081817047028BD2B20283028B42EA01228F
:1016300002837047028B02F47F420283028B0A43CB
:101640000283704721B1828A42F02002828204E044
:10165000828A4FF6DF731A408282704721B1828AF4
:1016600042F01002828204E0828A4FF6EF731A4041
:101670008282704721B1828A42F00802828204E0AD
:10168000828A4FF6F7731A408282704721B18289AD
:1016900042F40042828103E08289C2F30E02828119
:1016A000704721B1828A42F40062828204E0828A19
:1016B0004FF2FF731A4082827047828A4FF6FB73A3
:1016C0001A408282828A0A438282704721B1828ACA
:1016D00042F00202828204E0828A4FF6FD731A40D1
:1016E0008282704702460020B1F5007F00D100BF22
:1016F00013880B400BB1012000E00020704701F47B
:101700000072B2F5007F00D100BFCA43028070476B
:1017100070B50246002400230025002040F66A161A
:10172000B14200D100BFC1F3421501F01F030126F1
:1017300006FA03F3012D02D19689334006E0022D0B
:1017400002D1168A334001E0968A33400C120126FA
:1017500006FA04F41688344013B10CB1012000E0FD
:10176000002070BD10B50022002340F66A14A1428B
:1017700000D100BF0A1201249440A3B2DC430480CC
:1017800010BD000000380140004400400048004007
:10179000004C00400050004031490143314A116083
:1017A000704770B5002100230F22C47804B32D4C7C
:1017B000246804F4E064C4F5E064210AC1F1040380
:1017C000CA40447804FA03F18478144021430901A3
:1017D000254C0678A155047804F01F050124AC407F
:1017E00005786D11AD0005F1E025C5F8004109E06F
:1017F000047804F01F050124AC401C4D06787611D6
:1018000045F8264070BD1A4A0A400243154B1B1F7B
:101810001A60704739B1134A121D12680243114B06
:101820001B1D1A6006E00F4A121D126882430D4B01
:101830001B1D1A607047042808D14FF0E021096988
:1018400041F004014FF0E022116107E04FF0E02188
:10185000096921F004014FF0E02211617047000096
:101860000000FA050CED00E000E400E080E100E09B
:1018700080FFFF1F7047704770477047704775467D
:1018800000F02CF8AE4605006946534620F00700EC
:10189000854618B020B5FFF7E9F9BDE820404FF0C4
:1018A00000064FF000074FF000084FF0000B21F04A
:1018B0000701AC46ACE8C009ACE8C009ACE8C00917
:1018C000ACE8C0098D46704710B50446AFF3008000
:1018D0002046BDE81040FEF772BC0000004870478B
:1018E0006C000020C10DD1F19E0206DB4FEA0023FF
:1018F00043F0004323FA02F07047004207D54FEA55
:101900004001B1F1FE4F02D24FF00000704710B518
:1019100000F020F849922480002070476FEA2000F0
:101920007047000010F0004148BF4042B0FA80F319
:1019300010FA03F2C3F19D030BD051EAC35101EB3E
:101940001220530638BF704700F1010008BF20F095
:10195000010070470EF1020E2EF0030E5EF8044BEC
:10196000244204D44FEA4102B2F17F4F11D84FEA2A
:101970004003B3F17F4F0CD80ED14FEAD07CB2F1C7
:101980007F4F0CEB4C0C0CF1020C08BF4CEBD17CE4
:1019900004E04FF0080C01E04FEAD17C0CEB4C0363
:1019A00024FA03F404F00704B4F1040C06D20EEB9D
:1019B000840CBDE810404CF0010C6047DFE80CF0EF
:1019C000070802024FF00040A0F5800010BD084655
:1019D000420018BFD2F1807288BF00F0004010BDF5
:1019E000001A0008000000206C0000006C010008D4
:1019F0006C1A00086C0000206406000088010008D2
:101A000000A24A04000000000000000001020304DC
:101A100006070809000000000000000000000000A8
:101A200000000000000000000000000000000000B6
:101A300000000000000000000000000000000000A6
:101A40000000000000000000000000000000000096
:101A5000000000000000000000000000010203047C
:0C1A60000102030406070809020406083E
:0400000508000131BD
:00000001FF
